S01100005072616374696361322E73726563BA
S113000071C000008EC000008CC000008AC00000D7
S113001088C0000073C1000084C0000082C00000DA
S113002080C000007EC000007CC000007AC00000D8
S113003078C0000076C0000074C0000072C00000E8
S113004070C000006EC000006CC000006AC00000F8
S113005068C0000066C0000064C0000062C0000008
S113006060C000005EC000005CC000005AC0000018
S113007058C0000056C0000054C0000052C0000028
S113008050C000004EC000004CC000004AC0000038
S113009048C0000046C0000044C0000042C0000048
S11300A040C000003EC000003CC000003AC0000058
S11300B038C0000036C0000034C0000032C0000068
S11300C030C000002EC000002CC000002AC0000078
S11300D028C0000026C0000024C0000022C0000088
S11300E020C0000011241FBECFEFD1E2DEBFCDBF80
S11300F000E00CBF12E0A0E0B2E0E6E7F9E000E0C7
S11301000BBF02C007900D92A031B107D9F722E0CE
S1130110A0E1B2E001C01D92A831B207E1F73CD0E2
S113012028C46ECF80E480937C00EAE7F0E080810D
S113013080648083808184FFFDCFEAE7F0E08081E2
S1130140806180838091780090917900089580E4A3
S113015080937C0087E880937A00089510926A0067
S113016080E18DBB1CBA789408958FEF87B987E03E
S113017081B98EEF80BBEBDFF1DF8CE090E0D8D269
S1130180909311028093100283E090E0D1D2909377
S11301901302809312020895E8DFC0911002D091F7
S11301A0110280E0BFDFBC0180E090E089D120E053
S11301B030E040EA50E412D220E030E040E85AE374
S11301C00DD2688379838A839B83C0911202D09174
S11301D01302E0911002F091110260817181828119
S11301E093815FD241D168830F2EFBEF4F2E512CA8
S11301F0F02DCC24C394D12C612C712C79C0C091E6
S11302001002D09111027C0124E0E20EF11CFE01E7
S1130210E80FF91F80809180A280B380C501B401EA
S113022040D29B01AC01CE0DDF1DC501B401B7D096
S113023020E030E040E251E4D1D1688379838A83BD
S11302409B83E0911002F0911102EE0DFF1D60817D
S113025071818281938125D2C0911202D0911302BF
S1130260C00FD11F01D168830F5F1F4FC701033037
S1130270110509F0C4CF21143104A1F4E091120254
S1130280F0911302E081F0E0EA5FFD4F8081806825
S113029088B98BEF82B98FED9EE20197F1F700C028
S11302A0000020C0E0911202F0911302E60DF71D48
S11302B0E081F0E0EA5FFD4F80818F7788B9C20169
S11302C002C0959587952A94E2F7886F82B98FEDDD
S11302D09EE20197F1F700C0000093E0C916D10433
S11302E00CF087CF2FEF621A720A8FEFC81AD80A60
S11302F0130180E090E001E010E081CF1F920F92A3
S11303000FB60F9211240BB60F922F933F934F9376
S11303105F936F937F938F939F93AF93BF93CF9389
S1130320DF93EF93FF93C0911002D091110280E00C
S1130330F9DEBC0180E090E0C3D020E030E040EA88
S113034050E44CD120E030E040E85AE347D16883E0
S113035079838A839B83C0911202D0911302E09126
S11303601002F0911102608171818281938199D18F
S11303707BD06883FF91EF91DF91CF91BF91AF91D3
S11303809F918F917F916F915F914F913F912F91A9
S11303900F900BBE0F900FBE0F901F9018955058E2
S11303A0BB27AA270ED0E0C0D1D030F0D6D020F0A1
S11303B031F49F3F11F41EF4C6C00EF4E095E7FB40
S11303C0BCC0E92FE2D080F3BA1762077307840731
S11303D0950718F071F49EF5FAC00EF4E0950B2E13
S11303E0BA2FA02D0B01B90190010C01CA01A00183
S11303F01124FF27591B99F0593F50F4503E68F1DE
S11304001A16F040A22F232F342F4427585FF3CF1E
S1130410469537952795A795F0405395C9F77EF4EF
S11304201F16BA0B620B730B840BBAF09150A1F038
S1130430FF0FBB1F661F771F881FC2F70EC0BA0FBE
S1130440621F731F841F48F4879577956795B79546
S1130450F7959E3F08F0B3CF9395880F08F099273E
S1130460EE0F97958795089598D088F09F5790F050
S1130470B92F9927B751A0F0D1F0660F771F881FC5
S1130480991F1AF0BA95C9F712C0B13081F09FD004
S1130490B1E008959CC0672F782F8827B85F39F0A2
S11304A0B93FCCF3869577956795B395D9F73EF424
S11304B090958095709561957F4F8F4F9F4F0895CC
S11304C0E89409C097FB3EF49095809570956195EA
S11304D07F4F8F4F9F4F9923A9F0F92F96E9BB27A0
S11304E09395F695879577956795B795F111F8CF1C
S11304F0FAF4BB0F11F460FF1BC06F5F7F4F8F4F87
S11305009F4F16C0882311F096E911C0772321F07C
S11305109EE8872F762F05C0662371F096E8862F14
S113052070E060E02AF09A95660F771F881FDAF76B
S1130530880F9695879597F9089597F99F6780E8AE
S113054070E060E008959FEF80EC089500240A9421
S11305501616170618060906089500240A9412169A
S11305601306140605060895092E0394000C11F4CD
S1130570882352F0BB0F40F4BF2B11F460FF04C07A
S11305806F5F7F4F8F4F9F4F089557FD9058440FD3
S1130590551F59F05F3F71F04795880F97FB991FDE
S11305A061F09F3F79F0879508951216130614069B
S11305B0551FF2CF4695F1DF08C016161706180628
S11305C0991FF1CF86957105610508940895E89403
S11305D0BB2766277727CB0197F908950BD0C4CFA3
S11305E0B5DF28F0BADF18F0952309F0A6CFABCF1A
S11305F01124EECFCADFA0F3959FD1F3950F50E0FD
S1130600551F629FF001729FBB27F00DB11D639FC0
S1130610AA27F00DB11DAA1F649F6627B00DA11D66
S1130620661F829F2227B00DA11D621F739FB00D0C
S1130630A11D621F839FA00D611D221F749F33277C
S1130640A00D611D231F849F600D211D822F762F15
S11306506A2F11249F5750408AF0E1F088234AF012
S1130660EE0FFF1FBB1F661F771F881F915050405E
S1130670A9F79E3F510570F060CFAACF5F3FECF31E
S1130680983EDCF3869577956795B795F795E7954A
S11306909F5FC1F7FE2B880F911D9695879597F95B
S11306A008952FD020F09F3708F492CF01C01BC0CB
S11306B0882371F4772321F09850872B762F07C075
S11306C0662311F499270DC09051862B70E060E0E9
S11306D02AF09A95660F771F881FDAF7880F969588
S11306E0879597F908959F3F31F0915020F48795AD
S11306F077956795B795880F911D9695879597F986
S113070008954BDFA0F0BEE7B91788F4BB279F38E4
S113071060F41616B11D672F782F8827985FF7CFDE
S1130720869577956795B11D93959639C8F3089585
S11307300F931F93CF93DF938230910510F482E0DF
S113074090E0E0911602F091170220E030E0A0E082
S1130750B0E0309719F1408151810281138148172B
S11307605907C8F08417950769F4109731F0129669
S11307700C93129713961C9327C0009316021093A0
S1130780170222C02115310519F04217530718F436
S11307909A01BD01EF01DF01F801DBCF211531051D
S11307A0F9F0281B390B2430310580F48A819B81B0
S11307B06115710521F0FB019383828304C090933A
S11307C0170280931602FE01329644C0FE01E20F26
S11307D0F31F8193919322503109398328833AC0BE
S11307E02091140230911502232B41F4209102022E
S11307F030910302309315022093140220910002D9
S1130800309101022115310541F42DB73EB74091D5
S1130810040250910502241B350BE0911402F0915F
S11308201502E217F307A0F42E1B3F0B2817390714
S113083078F0AC014E5F5F4F2417350748F04E0F38
S11308405F1F50931502409314028193919302C049
S1130850E0E0F0E0CF01DF91CF911F910F91089577
S1130860CF93DF93009709F481C0FC013297138280
S11308701282A0911602B0911702109781F4208180
S11308803181820F931F2091140230911502281791
S1130890390751F5F0931502E093140267C0ED0196
S11308A020E030E0CE17DF0740F44A815B819E01EF
S11308B041155105F1F0EA01F5CFD383C28340819C
S11308C05181840F951FC817D90759F488819981DC
S11308D0840F951F0296918380838A819B819383E1
S11308E082832115310529F4F0931702E09316024F
S11308F03DC0E901FB83EA8349915991C40FD51F97
S1130900EC17FD0761F480819181840F951F029695
S1130910E90199838883828193819B838A83E0E0C0
S1130920F0E012968D919C911397009719F0FD01B8
S1130930DC01F7CF8D919C9111979D012E5F3F4F64
S1130940820F931F20911402309115022817390742
S113095069F4309729F4109217021092160202C01B
S113096013821282B0931502A0931402DF91CF91E7
S10909700895F894FFCF86
S11309760000180220003F065B4F666D7D077F6FFF
S9030000FC
