:1000000071C000008EC000008CC000008AC00000DB
:1000100088C0000086C0000084C0000082C00000CC
:1000200080C000007EC000007CC000007AC00000DC
:1000300078C0000076C0000074C0000072C00000EC
:1000400070C000006EC000006CC000006AC00000FC
:1000500068C0000066C0000064C0000062C000000C
:1000600060C000005EC000005CC000005AC000001C
:1000700058C0000000C1000054C0000052C0000081
:1000800050C000004EC000004CC000004AC000003C
:1000900048C0000046C0000044C0000042C000004C
:1000A00040C000003EC000003CC000003AC000005C
:1000B00038C0000036C0000034C0000032C000006C
:1000C00030C000002EC000002CC000002AC000007C
:1000D00028C0000026C0000024C0000022C000008C
:1000E00020C0000011241FBECFEFD1E2DEBFCDBF84
:1000F00000E00CBF12E0A0E0B2E0E2E5F6E000E0D4
:100100000BBF02C007900D92AA30B107D9F722E0C9
:10011000AAE0B2E001C01D92AC30B207E1F716D000
:1001200096C26ECF82E480937C00EAE7F0E08FE82D
:10013000808380818064808308958FEF87B987E012
:1001400081B98EEF80BBEEDF78940895CF93DF9373
:10015000CDB7DEB761970FB6F894DEBF0FBECDBF47
:10016000ECDF4E018CE0880E911CDE0111965D01E2
:10017000CC24C394D12C212C312C09C0BFEF2B1AD5
:100180003B0AEFEFCE1ADE0AFFEFAF1ABF0A398A39
:10019000288A60910A0270910B0280E090E01FD1E2
:1001A00020E030E040EA50E4A8D120E030E040E830
:1001B0005AE3A3D16C837D838E839F8301D2E3D0E6
:1001C00069838E010C5F1F4F7E0182E0E80EF11CF7
:1001D000D8014D905D906D907D908D01C301B2016D
:1001E000EFD19B01AC01C301B20168D020E030E047
:1001F00040E251E482D1F80160837183828393836A
:10020000DFD1C1D0D7016D937D010815190501F724
:10021000EFE6F7E13197F1F700C0000018B88FE67C
:1002200097E10197F1F700C00000A889B989AB2BCD
:1002300051F4E981F0E0E050FE4F8081806888B998
:10024000BBEFB2B99BCFD501EC91F0E0E050FE4F8F
:1002500080818F7788B98BEF90E0088802C09595F0
:1002600087950A94E2F7886F82B9B3E0CB16D10480
:100270000CF484CF7ACF1F920F920FB60F921124F5
:100280000BB60F928F939F93EF93FF93809178001B
:100290009091790090930B0280930A02EAE7F0E0D4
:1002A000808180648083FF91EF919F918F910F9067
:1002B0000BBE0F900FBE0F901F9018955058BB2784
:1002C000AA270ED0E0C0D1D030F0D6D020F031F443
:1002D0009F3F11F41EF4C6C00EF4E095E7FBBCC0CE
:1002E000E92FE2D080F3BA176207730784079507F6
:1002F00018F071F49EF5FAC00EF4E0950B2EBA2FAB
:10030000A02D0B01B90190010C01CA01A00111241B
:10031000FF27591B99F0593F50F4503E68F11A16C7
:10032000F040A22F232F342F4427585FF3CF469558
:1003300037952795A795F0405395C9F77EF41F167A
:10034000BA0B620B730B840BBAF09150A1F0FF0F44
:10035000BB1F661F771F881FC2F70EC0BA0F621F30
:10036000731F841F48F4879577956795B795F79520
:100370009E3F08F0B3CF9395880F08F09927EE0FB2
:1003800097958795089598D088F09F5790F0B92F4A
:100390009927B751A0F0D1F0660F771F881F991FDA
:1003A0001AF0BA95C9F712C0B13081F09FD0B1E010
:1003B00008959CC0672F782F8827B85F39F0B93F20
:1003C000CCF3869577956795B395D9F73EF49095DC
:1003D0008095709561957F4F8F4F9F4F0895E8945A
:1003E00009C097FB3EF490958095709561957F4F7D
:1003F0008F4F9F4F9923A9F0F92F96E9BB2793952B
:10040000F695879577956795B795F111F8CFFAF43A
:10041000BB0F11F460FF1BC06F5F7F4F8F4F9F4F6B
:1004200016C0882311F096E911C0772321F09EE8C9
:10043000872F762F05C0662371F096E8862F70E02F
:1004400060E02AF09A95660F771F881FDAF7880F09
:100450009695879597F9089597F99F6780E870E0DA
:1004600060E008959FEF80EC089500240A9416162A
:10047000170618060906089500240A941216130692
:10048000140605060895092E0394000C11F4882320
:1004900052F0BB0F40F4BF2B11F460FF04C06F5F3C
:1004A0007F4F8F4F9F4F089557FD9058440F551F12
:1004B00059F05F3F71F04795880F97FB991F61F0E6
:1004C0009F3F79F087950895121613061406551F5D
:1004D000F2CF4695F1DF08C0161617061806991FC9
:1004E000F1CF86957105610508940895E894BB27BE
:1004F00066277727CB0197F908950BD0C4CFB5DFD6
:1005000028F0BADF18F0952309F0A6CFABCF11245D
:10051000EECFCADFA0F3959FD1F3950F50E0551FA2
:10052000629FF001729FBB27F00DB11D639FAA2748
:10053000F00DB11DAA1F649F6627B00DA11D661F97
:10054000829F2227B00DA11D621F739FB00DA11DB8
:10055000621F839FA00D611D221F749F3327A00D72
:10056000611D231F849F600D211D822F762F6A2F0E
:1005700011249F5750408AF0E1F088234AF0EE0F93
:10058000FF1FBB1F661F771F881F91505040A9F7A0
:100590009E3F510570F060CFAACF5F3FECF3983ECD
:1005A000DCF3869577956795B795F795E7959F5F07
:1005B000C1F7FE2B880F911D9695879597F90895A1
:1005C0002FD020F09F3708F492CF01C01BC08823A2
:1005D00071F4772321F09850872B762F07C066237C
:1005E00011F499270DC09051862B70E060E02AF03D
:1005F0009A95660F771F881FDAF7880F969587956B
:1006000097F908959F3F31F0915020F487957795A1
:100610006795B795880F911D9695879597F90895D9
:100620004BDFA0F0BEE7B91788F4BB279F3860F412
:100630001616B11D672F782F8827985FF7CF8695FC
:1006400077956795B11D93959639C8F30895F894F9
:02065000FFCFDA
:0A0652003F065B4F666D7D077F6F6A
:00000001FF
